{
  "_format": "hh-sol-artifact-1",
  "contractName": "Governor",
  "sourceName": "contracts/Governor.sol",
  "abi": [
    {
      "inputs": [
        {
          "internalType": "address",
          "name": "_forwarder",
          "type": "address"
        }
      ],
      "stateMutability": "nonpayable",
      "type": "constructor"
    },
    {
      "anonymous": false,
      "inputs": [
        {
          "indexed": true,
          "internalType": "uint256",
          "name": "pollId",
          "type": "uint256"
        },
        {
          "indexed": false,
          "internalType": "uint256",
          "name": "timestamp",
          "type": "uint256"
        }
      ],
      "name": "Activated",
      "type": "event"
    },
    {
      "anonymous": false,
      "inputs": [
        {
          "indexed": true,
          "internalType": "uint256",
          "name": "pollId",
          "type": "uint256"
        },
        {
          "indexed": false,
          "internalType": "uint256",
          "name": "totalVoted",
          "type": "uint256"
        },
        {
          "indexed": false,
          "internalType": "uint256",
          "name": "timestamp",
          "type": "uint256"
        }
      ],
      "name": "Finalized",
      "type": "event"
    },
    {
      "anonymous": false,
      "inputs": [
        {
          "indexed": true,
          "internalType": "address",
          "name": "previousOwner",
          "type": "address"
        },
        {
          "indexed": true,
          "internalType": "address",
          "name": "newOwner",
          "type": "address"
        }
      ],
      "name": "OwnershipTransferred",
      "type": "event"
    },
    {
      "anonymous": false,
      "inputs": [
        {
          "indexed": false,
          "internalType": "uint256",
          "name": "pollId",
          "type": "uint256"
        }
      ],
      "name": "PollCreated",
      "type": "event"
    },
    {
      "anonymous": false,
      "inputs": [
        {
          "indexed": true,
          "internalType": "uint256",
          "name": "pollId",
          "type": "uint256"
        },
        {
          "indexed": false,
          "internalType": "uint256",
          "name": "voteIndex",
          "type": "uint256"
        },
        {
          "indexed": false,
          "internalType": "address",
          "name": "voter",
          "type": "address"
        },
        {
          "indexed": false,
          "internalType": "uint256",
          "name": "amount",
          "type": "uint256"
        }
      ],
      "name": "Voted",
      "type": "event"
    },
    {
      "inputs": [
        {
          "internalType": "uint256",
          "name": "pollId",
          "type": "uint256"
        }
      ],
      "name": "activate",
      "outputs": [],
      "stateMutability": "nonpayable",
      "type": "function"
    },
    {
      "inputs": [
        {
          "internalType": "string",
          "name": "title_",
          "type": "string"
        },
        {
          "internalType": "string[]",
          "name": "candidates_",
          "type": "string[]"
        },
        {
          "internalType": "uint256",
          "name": "startAt_",
          "type": "uint256"
        },
        {
          "internalType": "uint256",
          "name": "due_",
          "type": "uint256"
        }
      ],
      "name": "createPoll",
      "outputs": [],
      "stateMutability": "nonpayable",
      "type": "function"
    },
    {
      "inputs": [
        {
          "internalType": "uint256",
          "name": "pollId",
          "type": "uint256"
        }
      ],
      "name": "finalize",
      "outputs": [],
      "stateMutability": "nonpayable",
      "type": "function"
    },
    {
      "inputs": [
        {
          "internalType": "address",
          "name": "forwarder",
          "type": "address"
        }
      ],
      "name": "isTrustedForwarder",
      "outputs": [
        {
          "internalType": "bool",
          "name": "",
          "type": "bool"
        }
      ],
      "stateMutability": "view",
      "type": "function"
    },
    {
      "inputs": [],
      "name": "owner",
      "outputs": [
        {
          "internalType": "address",
          "name": "",
          "type": "address"
        }
      ],
      "stateMutability": "view",
      "type": "function"
    },
    {
      "inputs": [
        {
          "internalType": "uint256",
          "name": "pollId",
          "type": "uint256"
        }
      ],
      "name": "pollResult",
      "outputs": [
        {
          "components": [
            {
              "internalType": "string",
              "name": "candidate",
              "type": "string"
            },
            {
              "internalType": "uint256",
              "name": "votes",
              "type": "uint256"
            }
          ],
          "internalType": "struct Governor.Tally[]",
          "name": "",
          "type": "tuple[]"
        }
      ],
      "stateMutability": "view",
      "type": "function"
    },
    {
      "inputs": [
        {
          "internalType": "uint256",
          "name": "",
          "type": "uint256"
        },
        {
          "internalType": "address",
          "name": "",
          "type": "address"
        }
      ],
      "name": "pollVoterResults",
      "outputs": [
        {
          "internalType": "uint256",
          "name": "",
          "type": "uint256"
        }
      ],
      "stateMutability": "view",
      "type": "function"
    },
    {
      "inputs": [
        {
          "internalType": "uint256",
          "name": "",
          "type": "uint256"
        }
      ],
      "name": "polls",
      "outputs": [
        {
          "internalType": "string",
          "name": "title",
          "type": "string"
        },
        {
          "internalType": "uint256",
          "name": "startAt",
          "type": "uint256"
        },
        {
          "internalType": "uint256",
          "name": "due",
          "type": "uint256"
        },
        {
          "internalType": "uint256",
          "name": "totalVoted",
          "type": "uint256"
        },
        {
          "internalType": "enum Governor.Status",
          "name": "status",
          "type": "uint8"
        }
      ],
      "stateMutability": "view",
      "type": "function"
    },
    {
      "inputs": [],
      "name": "renounceOwnership",
      "outputs": [],
      "stateMutability": "nonpayable",
      "type": "function"
    },
    {
      "inputs": [
        {
          "internalType": "uint256",
          "name": "pollId",
          "type": "uint256"
        }
      ],
      "name": "totalVotes",
      "outputs": [
        {
          "internalType": "uint256",
          "name": "",
          "type": "uint256"
        }
      ],
      "stateMutability": "view",
      "type": "function"
    },
    {
      "inputs": [
        {
          "internalType": "address",
          "name": "newOwner",
          "type": "address"
        }
      ],
      "name": "transferOwnership",
      "outputs": [],
      "stateMutability": "nonpayable",
      "type": "function"
    },
    {
      "inputs": [
        {
          "internalType": "uint256",
          "name": "pollId",
          "type": "uint256"
        },
        {
          "internalType": "uint256",
          "name": "amount",
          "type": "uint256"
        },
        {
          "internalType": "string[]",
          "name": "votedCandidates",
          "type": "string[]"
        }
      ],
      "name": "vote",
      "outputs": [],
      "stateMutability": "nonpayable",
      "type": "function"
    },
    {
      "inputs": [
        {
          "internalType": "uint256",
          "name": "",
          "type": "uint256"
        },
        {
          "internalType": "uint256",
          "name": "",
          "type": "uint256"
        }
      ],
      "name": "voters",
      "outputs": [
        {
          "internalType": "address",
          "name": "",
          "type": "address"
        }
      ],
      "stateMutability": "view",
      "type": "function"
    }
  ],
  "bytecode": "0x60a06040523480156200001157600080fd5b5060405162002b4d38038062002b4d83398181016040528101906200003791906200025b565b808073ffffffffffffffffffffffffffffffffffffffff1660808173ffffffffffffffffffffffffffffffffffffffff1681525050506200008d620000816200009460201b60201c565b620000eb60201b60201c565b506200028d565b6000620000a733620001af60201b60201c565b8015620000b957506014600036905010155b15620000cf57601436033560601c9050620000e7565b620000df620001e960201b60201c565b9050620000e8565b5b90565b60008060009054906101000a900473ffffffffffffffffffffffffffffffffffffffff169050816000806101000a81548173ffffffffffffffffffffffffffffffffffffffff021916908373ffffffffffffffffffffffffffffffffffffffff1602179055508173ffffffffffffffffffffffffffffffffffffffff168173ffffffffffffffffffffffffffffffffffffffff167f8be0079c531659141344cd1fd0a4f28419497f9722a3daafe3b4186f6b6457e060405160405180910390a35050565b600060805173ffffffffffffffffffffffffffffffffffffffff168273ffffffffffffffffffffffffffffffffffffffff16149050919050565b600033905090565b600080fd5b600073ffffffffffffffffffffffffffffffffffffffff82169050919050565b60006200022382620001f6565b9050919050565b620002358162000216565b81146200024157600080fd5b50565b60008151905062000255816200022a565b92915050565b600060208284031215620002745762000273620001f1565b5b6000620002848482850162000244565b91505092915050565b6080516128a4620002a9600039600061050e01526128a46000f3fe608060405234801561001057600080fd5b50600436106100cf5760003560e01c80638da5cb5b1161008c578063b260c42a11610066578063b260c42a14610228578063f2fde38b14610244578063f6e8a46d14610260578063fba00cbd1461027c576100cf565b80638da5cb5b146101a6578063a9448999146101c4578063ac2f0074146101f4576100cf565b806305261aea146100d457806319e6e158146100f0578063351b896814610120578063572b6c0514610150578063715018a6146101805780637a061a0c1461018a575b600080fd5b6100ee60048036038101906100e99190611595565b6102ac565b005b61010a60048036038101906101059190611595565b61046a565b60405161011791906115d1565b60405180910390f35b61013a6004803603810190610135919061164a565b6104e5565b60405161014791906115d1565b60405180910390f35b61016a6004803603810190610165919061168a565b61050a565b60405161017791906116d2565b60405180910390f35b610188610562565b005b6101a4600480360381019061019f9190611919565b610576565b005b6101ae610858565b6040516101bb91906119c7565b60405180910390f35b6101de60048036038101906101d99190611595565b610881565b6040516101eb9190611b6f565b60405180910390f35b61020e60048036038101906102099190611595565b610b85565b60405161021f959493929190611c52565b60405180910390f35b610242600480360381019061023d9190611595565b610c60565b005b61025e6004803603810190610259919061168a565b610df7565b005b61027a60048036038101906102759190611d07565b610e7a565b005b61029660048036038101906102919190611d7b565b6111ea565b6040516102a391906119c7565b60405180910390f35b8060018054905081106102f4576040517f08c379a00000000000000000000000000000000000000000000000000000000081526004016102eb90611e07565b60405180910390fd5b6102fc61122c565b600182815481106103105761030f611e27565b5b9060005260206000209060080201600301544211610363576040517f08c379a000000000000000000000000000000000000000000000000000000000815260040161035a90611ea2565b60405180910390fd5b6001600281111561037757610376611bdb565b5b6001838154811061038b5761038a611e27565b5b906000526020600020906008020160070160009054906101000a900460ff1660028111156103bc576103bb611bdb565b5b146103fc576040517f08c379a00000000000000000000000000000000000000000000000000000000081526004016103f390611f0e565b60405180910390fd5b6104078260026112aa565b817f069cb9cf3066619f9a83be465993a22843ea7baba731ac97ac208899985dc0076001848154811061043d5761043c611e27565b5b9060005260206000209060080201600401544260405161045e929190611f2e565b60405180910390a25050565b60008160018054905081106104b4576040517f08c379a00000000000000000000000000000000000000000000000000000000081526004016104ab90611e07565b60405180910390fd5b600183815481106104c8576104c7611e27565b5b906000526020600020906008020160050180549050915050919050565b6003602052816000526040600020602052806000526040600020600091509150505481565b60007f000000000000000000000000000000000000000000000000000000000000000073ffffffffffffffffffffffffffffffffffffffff168273ffffffffffffffffffffffffffffffffffffffff16149050919050565b61056a61122c565b61057460006112fb565b565b61057e61122c565b60018351116105c2576040517f08c379a00000000000000000000000000000000000000000000000000000000081526004016105b990611fc9565b60405180910390fd5b428211610604576040517f08c379a00000000000000000000000000000000000000000000000000000000081526004016105fb9061205b565b60405180910390fd5b818111610646576040517f08c379a000000000000000000000000000000000000000000000000000000000815260040161063d906120ed565b60405180910390fd5b6001808160018154018082558091505003906000526020600020905050600060018080549050610676919061213c565b9050846001828154811061068d5761068c611e27565b5b906000526020600020906008020160000190816106aa919061237c565b5083600182815481106106c0576106bf611e27565b5b906000526020600020906008020160010190805190602001906106e492919061140a565b5082600182815481106106fa576106f9611e27565b5b906000526020600020906008020160020181905550816001828154811061072457610723611e27565b5b906000526020600020906008020160030181905550835167ffffffffffffffff81111561075457610753611708565b5b6040519080825280602002602001820160405280156107825781602001602082028036833780820191505090505b506001828154811061079757610796611e27565b5b906000526020600020906008020160060190805190602001906107bb929190611463565b506000600182815481106107d2576107d1611e27565b5b906000526020600020906008020160070160006101000a81548160ff0219169083600281111561080557610804611bdb565b5b02179055507fab0309b6731a34e8750174d3c2c9591a34a2bf0c1425a30b34122be08d0507396001808054905061083c919061213c565b60405161084991906115d1565b60405180910390a15050505050565b60008060009054906101000a900473ffffffffffffffffffffffffffffffffffffffff16905090565b60608160018054905081106108cb576040517f08c379a00000000000000000000000000000000000000000000000000000000081526004016108c290611e07565b60405180910390fd5b6002808111156108de576108dd611bdb565b5b600184815481106108f2576108f1611e27565b5b906000526020600020906008020160070160009054906101000a900460ff16600281111561092357610922611bdb565b5b14610963576040517f08c379a000000000000000000000000000000000000000000000000000000000815260040161095a9061249a565b60405180910390fd5b60006001848154811061097957610978611e27565b5b90600052602060002090600802016001018054905067ffffffffffffffff8111156109a7576109a6611708565b5b6040519080825280602002602001820160405280156109e057816020015b6109cd6114b0565b8152602001906001900390816109c55790505b50905060005b600185815481106109fa576109f9611e27565b5b906000526020600020906008020160010180549050811015610b7a5760018581548110610a2a57610a29611e27565b5b90600052602060002090600802016001018181548110610a4d57610a4c611e27565b5b906000526020600020018054610a629061219f565b80601f0160208091040260200160405190810160405280929190818152602001828054610a8e9061219f565b8015610adb5780601f10610ab057610100808354040283529160200191610adb565b820191906000526020600020905b815481529060010190602001808311610abe57829003601f168201915b5050505050828281518110610af357610af2611e27565b5b60200260200101516000018190525060018581548110610b1657610b15611e27565b5b90600052602060002090600802016006018181548110610b3957610b38611e27565b5b9060005260206000200154828281518110610b5757610b56611e27565b5b602002602001015160200181815250508080610b72906124ba565b9150506109e6565b508092505050919050565b60018181548110610b9557600080fd5b9060005260206000209060080201600091509050806000018054610bb89061219f565b80601f0160208091040260200160405190810160405280929190818152602001828054610be49061219f565b8015610c315780601f10610c0657610100808354040283529160200191610c31565b820191906000526020600020905b815481529060010190602001808311610c1457829003601f168201915b5050505050908060020154908060030154908060040154908060070160009054906101000a900460ff16905085565b806001805490508110610ca8576040517f08c379a0000000000000000000000000000000000000000000000000000000008152600401610c9f90611e07565b60405180910390fd5b610cb061122c565b60006002811115610cc457610cc3611bdb565b5b60018381548110610cd857610cd7611e27565b5b906000526020600020906008020160070160009054906101000a900460ff166002811115610d0957610d08611bdb565b5b14610d49576040517f08c379a0000000000000000000000000000000000000000000000000000000008152600401610d4090612574565b60405180910390fd5b4260018381548110610d5e57610d5d611e27565b5b90600052602060002090600802016003015411610db0576040517f08c379a0000000000000000000000000000000000000000000000000000000008152600401610da790612606565b60405180910390fd5b610dbb8260016112aa565b817f4867887a5b0bebacccb6e4c9c656b3a6b2fe478e226ea1fa5230d9b4bdabc26e42604051610deb91906115d1565b60405180910390a25050565b610dff61122c565b600073ffffffffffffffffffffffffffffffffffffffff168173ffffffffffffffffffffffffffffffffffffffff1603610e6e576040517f08c379a0000000000000000000000000000000000000000000000000000000008152600401610e6590612698565b60405180910390fd5b610e77816112fb565b50565b836001805490508110610ec2576040517f08c379a0000000000000000000000000000000000000000000000000000000008152600401610eb990611e07565b60405180910390fd5b60016002811115610ed657610ed5611bdb565b5b60018681548110610eea57610ee9611e27565b5b906000526020600020906008020160070160009054906101000a900460ff166002811115610f1b57610f1a611bdb565b5b14610f5b576040517f08c379a0000000000000000000000000000000000000000000000000000000008152600401610f5290612704565b60405180910390fd5b6000600360008781526020019081526020016000206000610f7a6113bf565b73ffffffffffffffffffffffffffffffffffffffff1673ffffffffffffffffffffffffffffffffffffffff1681526020019081526020016000205414610ff5576040517f08c379a0000000000000000000000000000000000000000000000000000000008152600401610fec90612796565b60405180910390fd5b60006001868154811061100b5761100a611e27565b5b90600052602060002090600802019050600060405180606001604052806110306113bf565b73ffffffffffffffffffffffffffffffffffffffff16815260200186869061105891906127b6565b81526020018781525090508160050181908060018154018082558091505060019003906000526020600020906003020160009091909190915060008201518160000160006101000a81548173ffffffffffffffffffffffffffffffffffffffff021916908373ffffffffffffffffffffffffffffffffffffffff16021790555060208201518160010190805190602001906110f492919061140a565b50604082015181600201555050816004016000815480929190611116906124ba565b9190505550600060018360050180549050611131919061213c565b905061113b6113bf565b600260008a8152602001908152602001600020600083815260200190815260200160002060006101000a81548173ffffffffffffffffffffffffffffffffffffffff021916908373ffffffffffffffffffffffffffffffffffffffff160217905550877f41df84b3b467b06744e40c92613c666324e7c640ce0a41ec06efdf602d367606826111c86113bf565b8a6040516111d8939291906127cb565b60405180910390a25050505050505050565b60026020528160005260406000206020528060005260406000206000915091509054906101000a900473ffffffffffffffffffffffffffffffffffffffff1681565b6112346113bf565b73ffffffffffffffffffffffffffffffffffffffff16611252610858565b73ffffffffffffffffffffffffffffffffffffffff16146112a8576040517f08c379a000000000000000000000000000000000000000000000000000000000815260040161129f9061284e565b60405180910390fd5b565b80600183815481106112bf576112be611e27565b5b906000526020600020906008020160070160006101000a81548160ff021916908360028111156112f2576112f1611bdb565b5b02179055505050565b60008060009054906101000a900473ffffffffffffffffffffffffffffffffffffffff169050816000806101000a81548173ffffffffffffffffffffffffffffffffffffffff021916908373ffffffffffffffffffffffffffffffffffffffff1602179055508173ffffffffffffffffffffffffffffffffffffffff168173ffffffffffffffffffffffffffffffffffffffff167f8be0079c531659141344cd1fd0a4f28419497f9722a3daafe3b4186f6b6457e060405160405180910390a35050565b60006113ca3361050a565b80156113db57506014600036905010155b156113ef57601436033560601c90506113fe565b6113f7611402565b90506113ff565b5b90565b600033905090565b828054828255906000526020600020908101928215611452579160200282015b82811115611451578251829081611441919061237c565b509160200191906001019061142a565b5b50905061145f91906114ca565b5090565b82805482825590600052602060002090810192821561149f579160200282015b8281111561149e578251825591602001919060010190611483565b5b5090506114ac91906114ee565b5090565b604051806040016040528060608152602001600081525090565b5b808211156114ea57600081816114e1919061150b565b506001016114cb565b5090565b5b808211156115075760008160009055506001016114ef565b5090565b5080546115179061219f565b6000825580601f106115295750611548565b601f01602090049060005260206000209081019061154791906114ee565b5b50565b6000604051905090565b600080fd5b600080fd5b6000819050919050565b6115728161155f565b811461157d57600080fd5b50565b60008135905061158f81611569565b92915050565b6000602082840312156115ab576115aa611555565b5b60006115b984828501611580565b91505092915050565b6115cb8161155f565b82525050565b60006020820190506115e660008301846115c2565b92915050565b600073ffffffffffffffffffffffffffffffffffffffff82169050919050565b6000611617826115ec565b9050919050565b6116278161160c565b811461163257600080fd5b50565b6000813590506116448161161e565b92915050565b6000806040838503121561166157611660611555565b5b600061166f85828601611580565b925050602061168085828601611635565b9150509250929050565b6000602082840312156116a05761169f611555565b5b60006116ae84828501611635565b91505092915050565b60008115159050919050565b6116cc816116b7565b82525050565b60006020820190506116e760008301846116c3565b92915050565b600080fd5b600080fd5b6000601f19601f8301169050919050565b7f4e487b7100000000000000000000000000000000000000000000000000000000600052604160045260246000fd5b611740826116f7565b810181811067ffffffffffffffff8211171561175f5761175e611708565b5b80604052505050565b600061177261154b565b905061177e8282611737565b919050565b600067ffffffffffffffff82111561179e5761179d611708565b5b6117a7826116f7565b9050602081019050919050565b82818337600083830152505050565b60006117d66117d184611783565b611768565b9050828152602081018484840111156117f2576117f16116f2565b5b6117fd8482856117b4565b509392505050565b600082601f83011261181a576118196116ed565b5b813561182a8482602086016117c3565b91505092915050565b600067ffffffffffffffff82111561184e5761184d611708565b5b602082029050602081019050919050565b600080fd5b600061187761187284611833565b611768565b9050808382526020820190506020840283018581111561189a5761189961185f565b5b835b818110156118e157803567ffffffffffffffff8111156118bf576118be6116ed565b5b8086016118cc8982611805565b8552602085019450505060208101905061189c565b5050509392505050565b600082601f830112611900576118ff6116ed565b5b8135611910848260208601611864565b91505092915050565b6000806000806080858703121561193357611932611555565b5b600085013567ffffffffffffffff8111156119515761195061155a565b5b61195d87828801611805565b945050602085013567ffffffffffffffff81111561197e5761197d61155a565b5b61198a878288016118eb565b935050604061199b87828801611580565b92505060606119ac87828801611580565b91505092959194509250565b6119c18161160c565b82525050565b60006020820190506119dc60008301846119b8565b92915050565b600081519050919050565b600082825260208201905092915050565b6000819050602082019050919050565b600081519050919050565b600082825260208201905092915050565b60005b83811015611a48578082015181840152602081019050611a2d565b60008484015250505050565b6000611a5f82611a0e565b611a698185611a19565b9350611a79818560208601611a2a565b611a82816116f7565b840191505092915050565b611a968161155f565b82525050565b60006040830160008301518482036000860152611ab98282611a54565b9150506020830151611ace6020860182611a8d565b508091505092915050565b6000611ae58383611a9c565b905092915050565b6000602082019050919050565b6000611b05826119e2565b611b0f81856119ed565b935083602082028501611b21856119fe565b8060005b85811015611b5d5784840389528151611b3e8582611ad9565b9450611b4983611aed565b925060208a01995050600181019050611b25565b50829750879550505050505092915050565b60006020820190508181036000830152611b898184611afa565b905092915050565b600082825260208201905092915050565b6000611bad82611a0e565b611bb78185611b91565b9350611bc7818560208601611a2a565b611bd0816116f7565b840191505092915050565b7f4e487b7100000000000000000000000000000000000000000000000000000000600052602160045260246000fd5b60038110611c1b57611c1a611bdb565b5b50565b6000819050611c2c82611c0a565b919050565b6000611c3c82611c1e565b9050919050565b611c4c81611c31565b82525050565b600060a0820190508181036000830152611c6c8188611ba2565b9050611c7b60208301876115c2565b611c8860408301866115c2565b611c9560608301856115c2565b611ca26080830184611c43565b9695505050505050565b600080fd5b60008083601f840112611cc757611cc66116ed565b5b8235905067ffffffffffffffff811115611ce457611ce3611cac565b5b602083019150836020820283011115611d0057611cff61185f565b5b9250929050565b60008060008060608587031215611d2157611d20611555565b5b6000611d2f87828801611580565b9450506020611d4087828801611580565b935050604085013567ffffffffffffffff811115611d6157611d6061155a565b5b611d6d87828801611cb1565b925092505092959194509250565b60008060408385031215611d9257611d91611555565b5b6000611da085828601611580565b9250506020611db185828601611580565b9150509250929050565b7f476f7665726e6f72203a20496e76616c696420506f6c6c204964000000000000600082015250565b6000611df1601a83611b91565b9150611dfc82611dbb565b602082019050919050565b60006020820190508181036000830152611e2081611de4565b9050919050565b7f4e487b7100000000000000000000000000000000000000000000000000000000600052603260045260246000fd5b7f476f7665726e6f723a204475652073686f756c64206265207061737365640000600082015250565b6000611e8c601e83611b91565b9150611e9782611e56565b602082019050919050565b60006020820190508181036000830152611ebb81611e7f565b9050919050565b7f476f7665726e6f723a20506f6c6c2073686f756c64206265206f70656e000000600082015250565b6000611ef8601d83611b91565b9150611f0382611ec2565b602082019050919050565b60006020820190508181036000830152611f2781611eeb565b9050919050565b6000604082019050611f4360008301856115c2565b611f5060208301846115c2565b9392505050565b7f476f7665726e6f723a2043616e646964617465732063616e206e6f742062652060008201527f6c657373207468616e206f7220657175616c20746f2031000000000000000000602082015250565b6000611fb3603783611b91565b9150611fbe82611f57565b604082019050919050565b60006020820190508181036000830152611fe281611fa6565b9050919050565b7f476f7665726e6f723a20506f6c6c2063616e6e6f742073746172742066726f6d60008201527f2074686520706173740000000000000000000000000000000000000000000000602082015250565b6000612045602983611b91565b915061205082611fe9565b604082019050919050565b6000602082019050818103600083015261207481612038565b9050919050565b7f476f7665726e6f723a20506f6c6c2063616e6e6f7420626520656e642062656660008201527f6f72652074686520737461727400000000000000000000000000000000000000602082015250565b60006120d7602d83611b91565b91506120e28261207b565b604082019050919050565b60006020820190508181036000830152612106816120ca565b9050919050565b7f4e487b7100000000000000000000000000000000000000000000000000000000600052601160045260246000fd5b60006121478261155f565b91506121528361155f565b925082820390508181111561216a5761216961210d565b5b92915050565b7f4e487b7100000000000000000000000000000000000000000000000000000000600052602260045260246000fd5b600060028204905060018216806121b757607f821691505b6020821081036121ca576121c9612170565b5b50919050565b60008190508160005260206000209050919050565b60006020601f8301049050919050565b600082821b905092915050565b6000600883026122327fffffffffffffffffffffffffffffffffffffffffffffffffffffffffffffffff826121f5565b61223c86836121f5565b95508019841693508086168417925050509392505050565b6000819050919050565b600061227961227461226f8461155f565b612254565b61155f565b9050919050565b6000819050919050565b6122938361225e565b6122a761229f82612280565b848454612202565b825550505050565b600090565b6122bc6122af565b6122c781848461228a565b505050565b5b818110156122eb576122e06000826122b4565b6001810190506122cd565b5050565b601f82111561233057612301816121d0565b61230a846121e5565b81016020851015612319578190505b61232d612325856121e5565b8301826122cc565b50505b505050565b600082821c905092915050565b600061235360001984600802612335565b1980831691505092915050565b600061236c8383612342565b9150826002028217905092915050565b61238582611a0e565b67ffffffffffffffff81111561239e5761239d611708565b5b6123a8825461219f565b6123b38282856122ef565b600060209050601f8311600181146123e657600084156123d4578287015190505b6123de8582612360565b865550612446565b601f1984166123f4866121d0565b60005b8281101561241c578489015182556001820191506020850194506020810190506123f7565b868310156124395784890151612435601f891682612342565b8355505b6001600288020188555050505b505050505050565b7f476f7665726e6f723a20706f6c6c206e6f742066696e616c697a656420796574600082015250565b6000612484602083611b91565b915061248f8261244e565b602082019050919050565b600060208201905081810360008301526124b381612477565b9050919050565b60006124c58261155f565b91507fffffffffffffffffffffffffffffffffffffffffffffffffffffffffffffffff82036124f7576124f661210d565b5b600182019050919050565b7f476f7665726e6f72203a20706f6c6c2073686f756c642062652070656e64696e60008201527f6720666f722061637469766174696e6700000000000000000000000000000000602082015250565b600061255e603083611b91565b915061256982612502565b604082019050919050565b6000602082019050818103600083015261258d81612551565b9050919050565b7f476f7665726e6f72203a2063757272656e742074696d657374616d702063616e60008201527f6e6f74206265206f7665722074686520706f6c6c277320647565000000000000602082015250565b60006125f0603a83611b91565b91506125fb82612594565b604082019050919050565b6000602082019050818103600083015261261f816125e3565b9050919050565b7f4f776e61626c653a206e6577206f776e657220697320746865207a65726f206160008201527f6464726573730000000000000000000000000000000000000000000000000000602082015250565b6000612682602683611b91565b915061268d82612626565b604082019050919050565b600060208201905081810360008301526126b181612675565b9050919050565b7f476f7665726e6f72203a20506f6c6c206973206e6f74206f70656e206e6f7700600082015250565b60006126ee601f83611b91565b91506126f9826126b8565b602082019050919050565b6000602082019050818103600083015261271d816126e1565b9050919050565b7f476f7665726e6f72203a20566f7465722063616e6e6f7420766f74652061676160008201527f696e000000000000000000000000000000000000000000000000000000000000602082015250565b6000612780602283611b91565b915061278b82612724565b604082019050919050565b600060208201905081810360008301526127af81612773565b9050919050565b60006127c3368484611864565b905092915050565b60006060820190506127e060008301866115c2565b6127ed60208301856119b8565b6127fa60408301846115c2565b949350505050565b7f4f776e61626c653a2063616c6c6572206973206e6f7420746865206f776e6572600082015250565b6000612838602083611b91565b915061284382612802565b602082019050919050565b600060208201905081810360008301526128678161282b565b905091905056fea2646970667358221220065415789cbf9e7b4e1550d6e387215f90215343b9882ab8240afb346e6d165b64736f6c63430008130033",
  "linkReferences": {},
  "deployedLinkReferences": {}
}