{
    "_format": "hh-sol-artifact-1",
    "contractName": "MinimalForwarder",
    "sourceName": "contracts/MinimalForwarder.sol",
    "abi": [
        {
            "inputs": [],
            "stateMutability": "nonpayable",
            "type": "constructor"
        },
        {
            "inputs": [],
            "name": "InvalidShortString",
            "type": "error"
        },
        {
            "inputs": [
                {
                    "internalType": "string",
                    "name": "str",
                    "type": "string"
                }
            ],
            "name": "StringTooLong",
            "type": "error"
        },
        {
            "anonymous": false,
            "inputs": [],
            "name": "EIP712DomainChanged",
            "type": "event"
        },
        {
            "inputs": [],
            "name": "eip712Domain",
            "outputs": [
                {
                    "internalType": "bytes1",
                    "name": "fields",
                    "type": "bytes1"
                },
                {
                    "internalType": "string",
                    "name": "name",
                    "type": "string"
                },
                {
                    "internalType": "string",
                    "name": "version",
                    "type": "string"
                },
                {
                    "internalType": "uint256",
                    "name": "chainId",
                    "type": "uint256"
                },
                {
                    "internalType": "address",
                    "name": "verifyingContract",
                    "type": "address"
                },
                {
                    "internalType": "bytes32",
                    "name": "salt",
                    "type": "bytes32"
                },
                {
                    "internalType": "uint256[]",
                    "name": "extensions",
                    "type": "uint256[]"
                }
            ],
            "stateMutability": "view",
            "type": "function"
        },
        {
            "inputs": [
                {
                    "components": [
                        {
                            "internalType": "address",
                            "name": "from",
                            "type": "address"
                        },
                        {
                            "internalType": "address",
                            "name": "to",
                            "type": "address"
                        },
                        {
                            "internalType": "uint256",
                            "name": "value",
                            "type": "uint256"
                        },
                        {
                            "internalType": "uint256",
                            "name": "gas",
                            "type": "uint256"
                        },
                        {
                            "internalType": "uint256",
                            "name": "nonce",
                            "type": "uint256"
                        },
                        {
                            "internalType": "bytes",
                            "name": "data",
                            "type": "bytes"
                        }
                    ],
                    "internalType": "struct MinimalForwarder.ForwardRequest",
                    "name": "req",
                    "type": "tuple"
                },
                {
                    "internalType": "bytes",
                    "name": "signature",
                    "type": "bytes"
                }
            ],
            "name": "execute",
            "outputs": [
                {
                    "internalType": "bool",
                    "name": "",
                    "type": "bool"
                },
                {
                    "internalType": "bytes",
                    "name": "",
                    "type": "bytes"
                }
            ],
            "stateMutability": "payable",
            "type": "function"
        },
        {
            "inputs": [
                {
                    "internalType": "address",
                    "name": "from",
                    "type": "address"
                }
            ],
            "name": "getNonce",
            "outputs": [
                {
                    "internalType": "uint256",
                    "name": "",
                    "type": "uint256"
                }
            ],
            "stateMutability": "view",
            "type": "function"
        },
        {
            "inputs": [
                {
                    "components": [
                        {
                            "internalType": "address",
                            "name": "from",
                            "type": "address"
                        },
                        {
                            "internalType": "address",
                            "name": "to",
                            "type": "address"
                        },
                        {
                            "internalType": "uint256",
                            "name": "value",
                            "type": "uint256"
                        },
                        {
                            "internalType": "uint256",
                            "name": "gas",
                            "type": "uint256"
                        },
                        {
                            "internalType": "uint256",
                            "name": "nonce",
                            "type": "uint256"
                        },
                        {
                            "internalType": "bytes",
                            "name": "data",
                            "type": "bytes"
                        }
                    ],
                    "internalType": "struct MinimalForwarder.ForwardRequest",
                    "name": "req",
                    "type": "tuple"
                },
                {
                    "internalType": "bytes",
                    "name": "signature",
                    "type": "bytes"
                }
            ],
            "name": "verify",
            "outputs": [
                {
                    "internalType": "bool",
                    "name": "",
                    "type": "bool"
                }
            ],
            "stateMutability": "view",
            "type": "function"
        }
    ],
    "bytecode": "0x6101606040523480156200001257600080fd5b506040518060400160405280601081526020017f4d696e696d616c466f72776172646572000000000000000000000000000000008152506040518060400160405280600581526020017f302e302e31000000000000000000000000000000000000000000000000000000815250620000956000836200013560201b90919060201c565b6101208181525050620000b36001826200013560201b90919060201c565b6101408181525050818051906020012060e08181525050808051906020012061010081815250504660a08181525050620000f26200018d60201b60201c565b608081815250503073ffffffffffffffffffffffffffffffffffffffff1660c08173ffffffffffffffffffffffffffffffffffffffff16815250505050620007e5565b60006020835110156200015b576200015383620001ea60201b60201c565b905062000187565b826200016d836200025760201b60201c565b60000190816200017e9190620004db565b5060ff60001b90505b92915050565b60007f8b73c3c69bb8fe3d512ecc4cf759cc79239f7b179b0ffacaa9a75d522b39400f60e051610100514630604051602001620001cf95949392919062000633565b60405160208183030381529060405280519060200120905090565b600080829050601f815111156200023a57826040517f305a27a90000000000000000000000000000000000000000000000000000000081526004016200023191906200071f565b60405180910390fd5b805181620002489062000775565b60001c1760001b915050919050565b6000819050919050565b600081519050919050565b7f4e487b7100000000000000000000000000000000000000000000000000000000600052604160045260246000fd5b7f4e487b7100000000000000000000000000000000000000000000000000000000600052602260045260246000fd5b60006002820490506001821680620002e357607f821691505b602082108103620002f957620002f86200029b565b5b50919050565b60008190508160005260206000209050919050565b60006020601f8301049050919050565b600082821b905092915050565b600060088302620003637fffffffffffffffffffffffffffffffffffffffffffffffffffffffffffffffff8262000324565b6200036f868362000324565b95508019841693508086168417925050509392505050565b6000819050919050565b6000819050919050565b6000620003bc620003b6620003b08462000387565b62000391565b62000387565b9050919050565b6000819050919050565b620003d8836200039b565b620003f0620003e782620003c3565b84845462000331565b825550505050565b600090565b62000407620003f8565b62000414818484620003cd565b505050565b5b818110156200043c5762000430600082620003fd565b6001810190506200041a565b5050565b601f8211156200048b576200045581620002ff565b620004608462000314565b8101602085101562000470578190505b620004886200047f8562000314565b83018262000419565b50505b505050565b600082821c905092915050565b6000620004b06000198460080262000490565b1980831691505092915050565b6000620004cb83836200049d565b9150826002028217905092915050565b620004e68262000261565b67ffffffffffffffff8111156200050257620005016200026c565b5b6200050e8254620002ca565b6200051b82828562000440565b600060209050601f8311600181146200055357600084156200053e578287015190505b6200054a8582620004bd565b865550620005ba565b601f1984166200056386620002ff565b60005b828110156200058d5784890151825560018201915060208501945060208101905062000566565b86831015620005ad5784890151620005a9601f8916826200049d565b8355505b6001600288020188555050505b505050505050565b6000819050919050565b620005d781620005c2565b82525050565b620005e88162000387565b82525050565b600073ffffffffffffffffffffffffffffffffffffffff82169050919050565b60006200061b82620005ee565b9050919050565b6200062d816200060e565b82525050565b600060a0820190506200064a6000830188620005cc565b620006596020830187620005cc565b620006686040830186620005cc565b620006776060830185620005dd565b62000686608083018462000622565b9695505050505050565b600082825260208201905092915050565b60005b83811015620006c1578082015181840152602081019050620006a4565b60008484015250505050565b6000601f19601f8301169050919050565b6000620006eb8262000261565b620006f7818562000690565b935062000709818560208601620006a1565b6200071481620006cd565b840191505092915050565b600060208201905081810360008301526200073b8184620006de565b905092915050565b600081519050919050565b6000819050602082019050919050565b60006200076c8251620005c2565b80915050919050565b6000620007828262000743565b826200078e846200074e565b90506200079b816200075e565b92506020821015620007de57620007d97fffffffffffffffffffffffffffffffffffffffffffffffffffffffffffffffff8360200360080262000324565b831692505b5050919050565b60805160a05160c05160e0516101005161012051610140516116c162000840600039600061035c0152600061032801526000610a7701526000610a56015260006107360152600061078c015260006107b501526116c16000f3fe60806040526004361061003f5760003560e01c80632d0335ab1461004457806347153f821461008157806384b0196e146100b2578063bf5d3bdb146100e3575b600080fd5b34801561005057600080fd5b5061006b60048036038101906100669190610c11565b610120565b6040516100789190610c57565b60405180910390f35b61009b60048036038101906100969190610cfb565b610169565b6040516100a9929190610e22565b60405180910390f35b3480156100be57600080fd5b506100c7610315565b6040516100da9796959493929190610fc8565b60405180910390f35b3480156100ef57600080fd5b5061010a60048036038101906101059190610cfb565b610417565b604051610117919061104c565b60405180910390f35b6000600260008373ffffffffffffffffffffffffffffffffffffffff1673ffffffffffffffffffffffffffffffffffffffff168152602001908152602001600020549050919050565b60006060610178858585610417565b6101b7576040517f08c379a00000000000000000000000000000000000000000000000000000000081526004016101ae906110d9565b60405180910390fd5b600185608001356101c89190611128565b600260008760000160208101906101df9190610c11565b73ffffffffffffffffffffffffffffffffffffffff1673ffffffffffffffffffffffffffffffffffffffff168152602001908152602001600020819055506000808660200160208101906102339190610c11565b73ffffffffffffffffffffffffffffffffffffffff1687606001358860400135898060a00190610263919061116b565b8b60000160208101906102769190610c11565b60405160200161028893929190611255565b6040516020818303038152906040526040516102a491906112b0565b600060405180830381858888f193505050503d80600081146102e2576040519150601f19603f3d011682016040523d82523d6000602084013e6102e7565b606091505b5091509150603f87606001356102fd91906112f6565b5a1161030557fe5b8181935093505050935093915050565b60006060806000806000606061035560007f00000000000000000000000000000000000000000000000000000000000000006105cd90919063ffffffff16565b61038960017f00000000000000000000000000000000000000000000000000000000000000006105cd90919063ffffffff16565b46306000801b600067ffffffffffffffff8111156103aa576103a9611327565b5b6040519080825280602002602001820160405280156103d85781602001602082028036833780820191505090505b507f0f00000000000000000000000000000000000000000000000000000000000000959493929190965096509650965096509650965090919293949596565b60008061052084848080601f016020809104026020016040519081016040528093929190818152602001838380828437600081840152601f19601f820116905080830192505050505050506105127fdd8f4b70b0f4393e889bd39128a30628a78b61816a9eb8199759e7a349657e488860000160208101906104999190610c11565b8960200160208101906104ac9190610c11565b8a604001358b606001358c608001358d8060a001906104cb919061116b565b6040516104d9929190611356565b60405180910390206040516020016104f7979695949392919061136f565b6040516020818303038152906040528051906020012061067d565b61069790919063ffffffff16565b905084608001356002600087600001602081019061053e9190610c11565b73ffffffffffffffffffffffffffffffffffffffff1673ffffffffffffffffffffffffffffffffffffffff168152602001908152602001600020541480156105c357508460000160208101906105949190610c11565b73ffffffffffffffffffffffffffffffffffffffff168173ffffffffffffffffffffffffffffffffffffffff16145b9150509392505050565b606060ff60001b83146105ea576105e3836106be565b9050610677565b8180546105f69061140d565b80601f01602080910402602001604051908101604052809291908181526020018280546106229061140d565b801561066f5780601f106106445761010080835404028352916020019161066f565b820191906000526020600020905b81548152906001019060200180831161065257829003601f168201915b505050505090505b92915050565b600061069061068a610732565b836107e9565b9050919050565b60008060006106a6858561082a565b915091506106b38161087b565b819250505092915050565b606060006106cb836109e1565b90506000602067ffffffffffffffff8111156106ea576106e9611327565b5b6040519080825280601f01601f19166020018201604052801561071c5781602001600182028036833780820191505090505b5090508181528360208201528092505050919050565b60007f000000000000000000000000000000000000000000000000000000000000000073ffffffffffffffffffffffffffffffffffffffff163073ffffffffffffffffffffffffffffffffffffffff161480156107ae57507f000000000000000000000000000000000000000000000000000000000000000046145b156107db577f000000000000000000000000000000000000000000000000000000000000000090506107e6565b6107e3610a31565b90505b90565b60006040517f190100000000000000000000000000000000000000000000000000000000000081528360028201528260228201526042812091505092915050565b600080604183510361086b5760008060006020860151925060408601519150606086015160001a905061085f87828585610ac7565b94509450505050610874565b60006002915091505b9250929050565b6000600481111561088f5761088e61143e565b5b8160048111156108a2576108a161143e565b5b03156109de57600160048111156108bc576108bb61143e565b5b8160048111156108cf576108ce61143e565b5b0361090f576040517f08c379a0000000000000000000000000000000000000000000000000000000008152600401610906906114b9565b60405180910390fd5b600260048111156109235761092261143e565b5b8160048111156109365761093561143e565b5b03610976576040517f08c379a000000000000000000000000000000000000000000000000000000000815260040161096d90611525565b60405180910390fd5b6003600481111561098a5761098961143e565b5b81600481111561099d5761099c61143e565b5b036109dd576040517f08c379a00000000000000000000000000000000000000000000000000000000081526004016109d4906115b7565b60405180910390fd5b5b50565b60008060ff8360001c169050601f811115610a28576040517fb3512b0c00000000000000000000000000000000000000000000000000000000815260040160405180910390fd5b80915050919050565b60007f8b73c3c69bb8fe3d512ecc4cf759cc79239f7b179b0ffacaa9a75d522b39400f7f00000000000000000000000000000000000000000000000000000000000000007f00000000000000000000000000000000000000000000000000000000000000004630604051602001610aac9594939291906115d7565b60405160208183030381529060405280519060200120905090565b6000807f7fffffffffffffffffffffffffffffff5d576e7357a4501ddfe92f46681b20a08360001c1115610b02576000600391509150610ba0565b600060018787878760405160008152602001604052604051610b279493929190611646565b6020604051602081039080840390855afa158015610b49573d6000803e3d6000fd5b505050602060405103519050600073ffffffffffffffffffffffffffffffffffffffff168173ffffffffffffffffffffffffffffffffffffffff1603610b9757600060019250925050610ba0565b80600092509250505b94509492505050565b600080fd5b600080fd5b600073ffffffffffffffffffffffffffffffffffffffff82169050919050565b6000610bde82610bb3565b9050919050565b610bee81610bd3565b8114610bf957600080fd5b50565b600081359050610c0b81610be5565b92915050565b600060208284031215610c2757610c26610ba9565b5b6000610c3584828501610bfc565b91505092915050565b6000819050919050565b610c5181610c3e565b82525050565b6000602082019050610c6c6000830184610c48565b92915050565b600080fd5b600060c08284031215610c8d57610c8c610c72565b5b81905092915050565b600080fd5b600080fd5b600080fd5b60008083601f840112610cbb57610cba610c96565b5b8235905067ffffffffffffffff811115610cd857610cd7610c9b565b5b602083019150836001820283011115610cf457610cf3610ca0565b5b9250929050565b600080600060408486031215610d1457610d13610ba9565b5b600084013567ffffffffffffffff811115610d3257610d31610bae565b5b610d3e86828701610c77565b935050602084013567ffffffffffffffff811115610d5f57610d5e610bae565b5b610d6b86828701610ca5565b92509250509250925092565b60008115159050919050565b610d8c81610d77565b82525050565b600081519050919050565b600082825260208201905092915050565b60005b83811015610dcc578082015181840152602081019050610db1565b60008484015250505050565b6000601f19601f8301169050919050565b6000610df482610d92565b610dfe8185610d9d565b9350610e0e818560208601610dae565b610e1781610dd8565b840191505092915050565b6000604082019050610e376000830185610d83565b8181036020830152610e498184610de9565b90509392505050565b60007fff0000000000000000000000000000000000000000000000000000000000000082169050919050565b610e8781610e52565b82525050565b600081519050919050565b600082825260208201905092915050565b6000610eb482610e8d565b610ebe8185610e98565b9350610ece818560208601610dae565b610ed781610dd8565b840191505092915050565b610eeb81610bd3565b82525050565b6000819050919050565b610f0481610ef1565b82525050565b600081519050919050565b600082825260208201905092915050565b6000819050602082019050919050565b610f3f81610c3e565b82525050565b6000610f518383610f36565b60208301905092915050565b6000602082019050919050565b6000610f7582610f0a565b610f7f8185610f15565b9350610f8a83610f26565b8060005b83811015610fbb578151610fa28882610f45565b9750610fad83610f5d565b925050600181019050610f8e565b5085935050505092915050565b600060e082019050610fdd600083018a610e7e565b8181036020830152610fef8189610ea9565b905081810360408301526110038188610ea9565b90506110126060830187610c48565b61101f6080830186610ee2565b61102c60a0830185610efb565b81810360c083015261103e8184610f6a565b905098975050505050505050565b60006020820190506110616000830184610d83565b92915050565b7f4d696e696d616c466f727761726465723a207369676e617475726520646f657360008201527f206e6f74206d6174636820726571756573740000000000000000000000000000602082015250565b60006110c3603283610e98565b91506110ce82611067565b604082019050919050565b600060208201905081810360008301526110f2816110b6565b9050919050565b7f4e487b7100000000000000000000000000000000000000000000000000000000600052601160045260246000fd5b600061113382610c3e565b915061113e83610c3e565b9250828201905080821115611156576111556110f9565b5b92915050565b600080fd5b600080fd5b600080fd5b600080833560016020038436030381126111885761118761115c565b5b80840192508235915067ffffffffffffffff8211156111aa576111a9611161565b5b6020830192506001820236038313156111c6576111c5611166565b5b509250929050565b600081905092915050565b82818337600083830152505050565b60006111f483856111ce565b93506112018385846111d9565b82840190509392505050565b60008160601b9050919050565b60006112258261120d565b9050919050565b60006112378261121a565b9050919050565b61124f61124a82610bd3565b61122c565b82525050565b60006112628285876111e8565b915061126e828461123e565b601482019150819050949350505050565b600061128a82610d92565b61129481856111ce565b93506112a4818560208601610dae565b80840191505092915050565b60006112bc828461127f565b915081905092915050565b7f4e487b7100000000000000000000000000000000000000000000000000000000600052601260045260246000fd5b600061130182610c3e565b915061130c83610c3e565b92508261131c5761131b6112c7565b5b828204905092915050565b7f4e487b7100000000000000000000000000000000000000000000000000000000600052604160045260246000fd5b60006113638284866111e8565b91508190509392505050565b600060e082019050611384600083018a610efb565b6113916020830189610ee2565b61139e6040830188610ee2565b6113ab6060830187610c48565b6113b86080830186610c48565b6113c560a0830185610c48565b6113d260c0830184610efb565b98975050505050505050565b7f4e487b7100000000000000000000000000000000000000000000000000000000600052602260045260246000fd5b6000600282049050600182168061142557607f821691505b602082108103611438576114376113de565b5b50919050565b7f4e487b7100000000000000000000000000000000000000000000000000000000600052602160045260246000fd5b7f45434453413a20696e76616c6964207369676e61747572650000000000000000600082015250565b60006114a3601883610e98565b91506114ae8261146d565b602082019050919050565b600060208201905081810360008301526114d281611496565b9050919050565b7f45434453413a20696e76616c6964207369676e6174757265206c656e67746800600082015250565b600061150f601f83610e98565b915061151a826114d9565b602082019050919050565b6000602082019050818103600083015261153e81611502565b9050919050565b7f45434453413a20696e76616c6964207369676e6174757265202773272076616c60008201527f7565000000000000000000000000000000000000000000000000000000000000602082015250565b60006115a1602283610e98565b91506115ac82611545565b604082019050919050565b600060208201905081810360008301526115d081611594565b9050919050565b600060a0820190506115ec6000830188610efb565b6115f96020830187610efb565b6116066040830186610efb565b6116136060830185610c48565b6116206080830184610ee2565b9695505050505050565b600060ff82169050919050565b6116408161162a565b82525050565b600060808201905061165b6000830187610efb565b6116686020830186611637565b6116756040830185610efb565b6116826060830184610efb565b9594505050505056fea2646970667358221220c333c3b40b5dade2c6ad206d754b7664fbff612aebca874a8f4ac642162d999d64736f6c63430008130033",
    "linkReferences": {},
    "deployedLinkReferences": {}
}